:100000000C94530A0C94700A0C94700A0C94700AA5
:100010000C94700A0C94700A0C94DB120C94700A05
:100020000C94700A0C94700A0C94700A0C94700A68
:100030000C94700A0C9474120C948D290C94700A10
:100040000C94700A0C94700A0C94702C0C94902CE4
:100050000C94700A0C94700A0C94700A0C94700A38
:100060000C94700A0C94700A1D0B250B2F0B370B88
:100070003F0B470B4F0B570B5F0B670B710B822B23
:10008000762B782B7A2B7C2B7E2B802B7365632031
:100090000D0A0020746F20002D2073657420746990
:1000A0006D6572204E6F2E0053656E64696E672019
:1000B0007465787420696E7374656164206F66205E
:1000C000537461747573200D0A00506572696F6412
:1000D00069632074696D6520736574200D0A005092
:1000E0006572696F6469632074696D6520736574F6
:1000F000200D0A002B2B2B454D455247454E4359A9
:1001000020627574746F6E20686173206265656E1D
:100110002070726573736564210D0A002B2B2B45CB
:100120004D455247454E435920627574746F6E2099
:10013000686173206265656E2070726573736564B3
:10014000210D0A0020202054726967672054696DD0
:1001500065202D2000202020546F74616C2054698C
:100160006D65202D20002020456E642054696D654A
:10017000202D200053746172742054696D65202D08
:1001800020005365742074686520626974732E2E94
:100190002E00496E69746961746520416374696FEA
:1001A0006E20436F6E666967204E6F2E2000526589
:1001B0006365697074207265717565737465642018
:1001C000736F2073657474696E672069742075702D
:1001D0002E200D0A0054616B696E6720616374699B
:1001E0006F6E20666F7220537461747573204E6F4A
:1001F0002E200053656E6420696E707574206163F3
:1002000074696F6E20636F6D706C657465205374D4
:10021000617475732E0D0A004469676974496E70C4
:1002200075742C2054616B6520416374696F6E2175
:10023000200D0A005A41005A43005A45005A47000F
:100240005A49005A4B005A42005A44005A46005A32
:1002500048005A4A005A4C00204275696C64206478
:10026000617465204A616E20323220323032312092
:1002700030383A31363A35300A00494F20526573EA
:1002800065742E2E2E0D0A005374617475732074DC
:100290006F20526573657420494F207263642E0D80
:1002A0000A004C6F616465642064656661756C74F6
:1002B000732E0D0A0053746174757320746F20528D
:1002C0006573657420746F2064656661756C742055
:1002D0007263642E0D0A0054657374205374617444
:1002E0007573204F66662072656365697665640D77
:1002F0000A005465737420537461747573204F6ED3
:100300002072656365697665640D0A002D3E205391
:10031000657474696E67206F7574707574202D2014
:10032000002D20736574206F7574707574202D20F6
:1003300000360D0A00350D0A00340D0A00330D0A8F
:1003400000320D0A00310D0A00360D0A00350D0A83
:1003500000340D0A00330D0A00320D0A00310D0A77
:10036000002B3E3E2054787420666F722053544117
:10037000545553207265636420002B3E3E20535435
:10038000415455532072656364202D20002B3E3E5E
:100390002052656C2E206F6E20496E70757420009F
:1003A0002B3E3E20436F6E742E206F6E20496E7080
:1003B000757420002B2B2B2053746172742062798A
:1003C00020676976696E6720746865205261646988
:1003D0006F2061206E75646765202D2077616B65E5
:1003E00020757021200D0A00207365636F6E6473A1
:1003F0002E0D0A002D2D2D57616B6554696D6572A8
:10040000202D20002B2D2B20526164696F20576115
:100410006B652054696D657220697320656E616239
:100420006C6564203E00207365636F6E64732E0DEF
:100430000A002D2D2D536C65657054696D65722011
:100440002D20002B2D2B20526164696F20536C6589
:1004500065702054696D657220697320656E6162F4
:100460006C6564203E002B2D2B20536F75726365E5
:1004700020495353492073657420746F20616E794D
:1004800020495353490D0A002B2D2B20536F7572B1
:10049000636520495353492073657420746F20535A
:1004A0004F555243455F4953534920287768697433
:1004B000656C697374290D0A002B2D2B204465731C
:1004C00074696E6174696F6E204953534920736576
:1004D0007420746F2073656E64696E67204953538E
:1004E000490D0A002B2D2B2044657374696E6174CD
:1004F000696F6E20495353492073657420746F20CF
:10050000444553544E5F49535349200D0A002D2D45
:100510002D536F7572636549535349202833292041
:100520002D20002D2D2D536F75726365495353494E
:1005300020283229202D20002D2D2D536F75726318
:10054000654953534920283129202D20002D2D2D78
:1005500044657374696E6174696F6E4953534920C1
:100560002D20002C20002C2000202D20006565412E
:10057000646472657373202D2000416374696F6E2B
:1005800020436F6E66696720446174610D0A002024
:100590002D202000656541646472657373202D20F1
:1005A00000436F6E66696720446174610D0A0053F1
:1005B00069676E6174757265202D2020005D202DA5
:1005C0002000436F6E6669675B00454550524F4D92
:1005D0002064756D703B0D0A00436F6E666967207D
:1005E0006461746120736176656420746F20454591
:1005F00050524F4D2E0D0A00454550524F4D20642C
:10060000756D703B0D0A004C6F6164656420646514
:100610006661756C74732E0D0A005D202D200043F9
:100620006F6E6669675B004E6F205369676E617419
:1006300075726520666F756E642E00454550524F89
:100640004D2064756D703B0D0A00416374696F6ED7
:1006500020436F6E666967206C6F61646564206615
:10066000726F6D20454550524F4D2E0D0A00436F5D
:100670006E666967206C6F616465642066726F6D79
:1006800020454550524F4D2E0D0A005369676E614B
:100690007475726520666F756E642E2E2E000000D4
:1006A000FF7F1F000100FF7F02000100FF7F0300AA
:1006B0000000FF7F01000000FFFF04530000FFFF68
:1006C00007000000FF7F07000000FFFFA30F0000EE
:1006D000FFFF00000000FF7F00000000FF7F000020
:1006E0000000FF7F02000000FFFFD13B0000FFFF82
:1006F000A40F0000FFFF00000000FFFFA50F000097
:10070000FFFF00002D2D3E2054696D6520666F723D
:1007100020706572696F646963204256206D65734D
:10072000736167650D0A002B2B2B574454205265CB
:100730007365742B2B2B0D0A002C30002C31002CF0
:1007400030002C31004261747456202D2000527804
:100750004420616E204552524F52202D2000466C9D
:10076000616767656420746F207361766520746FBC
:1007700020454550524F4D2E2E2E0D0A002C205252
:100780006573706F6E7365526573756C74202D2080
:10079000005265636569766564202D2000476F749B
:1007A00020736F6D657468696E6720627574206E62
:1007B0006F7420616E204F4B0D0A004E6574776F89
:1007C000726B436F6E6E656374696F6E43686563C9
:1007D0006B506572696F6420202D2000285253539E
:1007E00049436865636B54696D657220202D200054
:1007F0005365636F6E6473436F756E746572202DFD
:10080000200028436F6E6669675B45455F5345432B
:1008100042455454524945535D29202D20004375CB
:100820007272656E74526164696F4F706572617443
:10083000696F6E202D20005374617465206F6620EF
:10084000706C6179203A2D0D0A0020205475726E6B
:10085000696E6720526164696F204F6E2E2E2E0DD7
:100860000A0041542B43535054414131002020543D
:1008700075726E696E6720526164696F204F66669B
:100880002E2E2E0D0A004E6F206368616E67652E56
:100890002E2E0D0A20004E6F742073657420746F25
:1008A00020726573706F6E6420746F2074686520A9
:1008B0004953534920746861742073656E642074D1
:1008C0006865206D6573736167652E0D0A004E457E
:1008D000572D2D2D44657374696E6174696F6E496F
:1008E000535349202D20002020506172616D6574A2
:1008F000657220352069732073657420746F200041
:10090000506172616D657465722034206973207363
:10091000657420746F20004E45572D2D2D4465734E
:1009200074696E6174696F6E49535349202D2000BC
:100930002020506172616D65746572203520697385
:100940002073657420746F2000506172616D65744E
:10095000657220342069732073657420746F2000E1
:100960002D2D2D3E204E6565647320746F206265C9
:10097000206368616E6765642E0D0A002D2D2D3E83
:10098000204E6F206368616E67652E0D0A002D2D65
:100990003E20436865636B206966207265706F72E4
:1009A00074206261636B20495353492073686F75EB
:1009B0006C64206368616E67650D0A005265626F42
:1009C0006F74204256520D0A004154520053656E16
:1009D00064696E6720746865205265626F6F742069
:1009E000636F6D6D616E642E2E2E0D0A005265735D
:1009F0007461727420526164696F0D0A002069731A
:100A00002073657420746F2000506172616D65748D
:100A1000657220002069732073657420746F200054
:100A2000506172616D657465722000416374696F15
:100A30006E206368616E67652056616C7565203352
:100A4000206973202D2000416374696F6E206368F4
:100A5000616E67652056616C756520322069732070
:100A60002D2000416374696F6E206368616E676555
:100A70002056616C75652031206973202D2000504F
:100A80006172616D65746572206973202D2000416B
:100A9000646A75737420416374696F6E207061724B
:100AA000616D657465722076616C75650D0A002054
:100AB00069732073657420746F2000506172616DDA
:100AC0006574657220002069732073657420746FEB
:100AD0002000506172616D657465722000202020D5
:100AE00056616C7565206973202D20004D61726B15
:100AF000657231206973202D2000506172616D652F
:100B00007465722023206973202D200041646A756A
:100B1000737420706172616D657465722076616CAA
:100B200075650D0A00464C41475F4F7574707574CA
:100B30007320332069732000464C41475F4F757422
:100B40007075747320322069732000464C41475FF2
:100B50004F7574707574732031206973200056616D
:100B60006C75652032206973200056616C756520B4
:100B700066726F6D206D65737361676520697320A0
:100B80002D200041646A7573742044494F206279B6
:100B900020706F72742076616C75650D0A00536564
:100BA0006E64696E67206120726563656970742E7A
:100BB0002E2E0D0A00206C696E65204E6F2E0020CF
:100BC0006C696E65204E6F2E20005475726E204F3A
:100BD0006666005475726E204F6666005475726EBC
:100BE000204F6E005475726E204F6E0056616C205F
:100BF0006973202D200041646A7573742044494F45
:100C000020696E6469762E0D0A00526573657474EE
:100C1000696E6720526164696F2073746174652026
:100C20006D616368696E65732E2E2E0D0A001A00C1
:100C300053656E64696E67206120434E54524C20A8
:100C40005A0D0A00202054696D6554696C6C52611C
:100C500064696F496E6974202D20004C6F6F70734A
:100C6000436F756E746572202D2000524144494FC8
:100C7000202D20496E697420526164696F2E0D0A1F
:100C800000203E3E204353512056616C202D200011
:100C9000207265636420435351202D3E200052533F
:100CA00053492074696D6572206578706972656456
:100CB0000D0A0041542B4353513F0053656E74207D
:100CC0002D200041542B4353513F002D2D3E2053E6
:100CD00069676E616C205175616C20636865636B38
:100CE000202D20002D2D205265696E6974207261BF
:100CF00064696F2E2E2E0D0A00207365636F6E647B
:100D0000732E0D0A0054696D652074696C6C207235
:100D10006164696F2077616B6573207570202D2089
:100D2000002072656364204F4B0D0A0054696D65A5
:100D30007220657870697265640D0A004154005331
:100D4000656E64202741542720002D3E20436865AE
:100D5000636B20696620726164696F20636F6E6ED9
:100D60002E202D2000436C65616E2075702E2E2E76
:100D70000D0A00535441545553202D204E65676190
:100D8000746976652041434B0D0A00535441545514
:100D900053202D204D6573736167652044656C6930
:100DA00076657265642041434B0D0A002020496E30
:100DB000436865636B427566666572202D20004E40
:100DC0004F20436F6D6D616E6420666F756E640DAC
:100DD0000A005465787420636F6D6D616E642063E2
:100DE0006F646520666F756E640D0A00436F6D6DEC
:100DF000616E6420636F646520666F756E640D0AB2
:100E00000020202000205061796C6F6164202D202B
:100E10000020456E64202D200020536B6970202D2A
:100E200020004465636F64652074686520534453F3
:100E30000D0A004465636F6465207468652053740F
:100E4000617475730D0A002C20205344534C656E59
:100E500042697473202D200020204C656E677468F1
:100E6000202D20005D00496E436865636B42756606
:100E7000666572202D205B0020205344534C656E24
:100E80006774682073637261746368427566202DAD
:100E900020002D3E3E4D61746368696E67206F6669
:100EA0002049535349206661696C65642C206D6547
:100EB0007373616765206973206265696E6720647A
:100EC000756D7065642E002D2D3E4D6174636869EB
:100ED0006E67206F662049535349207061737365B4
:100EE0006421002D3E2053656E64696E672049536E
:100EF0005349206E6565647320746F2062652069B4
:100F00006E207468652077686974656C6973742EE7
:100F10002E2E005468652073656E64696E672074B8
:100F200065726D696E616C2066756C6C20545349F6
:100F3000206973203A2D20002020534453547970A7
:100F400065202D20005344535479706520736372DB
:100F500061746368427566202D20005344532072EB
:100F6000656365697665642C20626567696E2070CB
:100F7000726F63657373696E672E2E2E2E0D0A00D5
:100F80005344532072656365697665642C206475EB
:100F90006D70696E672063757272656E7420776F0D
:100FA000726B20696E2070726F67726573732E2E7C
:100FB0002E2E0D0A00546F6F206D756368206372CA
:100FC00061702E2E2E0D0A001A0053656E64696E34
:100FD00067206120434E54524C205A2E2E2E2E0D47
:100FE0000A0053656E642073756363657373202D07
:100FF00020282B434D47533A20726364290D0A0081
:101000006D6573736167652073656E6420636F6DD2
:10101000706C6574650D0A00476F7420616E204F17
:101020004B2E2E2E005344532073656E642074693A
:101030006D65722065787069726564207761697486
:10104000696E6720666F72204F4B0D0A001A0041CF
:10105000542B434D47533D001A0041542B434D47F9
:10106000533D0053656E64696E6720746865206D3A
:101070006573736167652E2E2E001A0053656E64CA
:10108000696E67206120434E54524C205A2028310B
:10109000292E2E2E2E0D0A002D2D2D2B2B2B2A2AFC
:1010A0002A466C757368206F6C642041434B0D0AAF
:1010B00000476F7420616E204F4B0D0A005344535C
:1010C0002073656E642074696D657220657870693F
:1010D0007265642077616974696E6720666F72203B
:1010E0004F4B0D0A0030003000300030003133002B
:1010F00031320041542B43545344533D0053656EE9
:1011000064696E67207365727669636520646566DD
:101110006E2E0D0A002B2B2D2D53656E642053541B
:1011200041545553203A2D20002B2B2D2D53656E05
:1011300064206D65737361676520627566666572AC
:10114000203A2D2000546F6F206D616E792066610A
:10115000696C6564204353512C2073657474696E07
:101160006720746865206661696C656420666C61DF
:10117000672E0D0A00426164204E6574776F726BB2
:1011800020436865636B20526573706F6E736520D2
:101190002D206E756D52657472696573203D200057
:1011A0005D20005B004D53475061796C6F61642096
:1011B0002D2000496E436865636B427566666572F3
:1011C000202D2000526573756C74202D20476574A6
:1011D00020426F617264205374617475730D0A004C
:1011E000526573756C74202D2047657420537461AB
:1011F00074757320436F6E6669670D0A00526573DC
:10120000756C74202D2047657420416374696F6E7E
:1012100020436F6E6669670D0A00526573756C74C2
:10122000202D2047657420436F6E6669670D0A00A4
:1012300041542B435453503D322C332C3133300D19
:101240000A0041542B435453503D322C332C2C3044
:10125000320D0A0041542B435453503D322C332C51
:1012600030320D0A0041542B435453503D322C323E
:101270002C32300D0A0041542B435453503D322C34
:10128000332C3133300D0A0041542B435453503D1D
:10129000322C332C2C30320D0A0041542B43545342
:1012A000503D322C332C30320D0A0041542B435424
:1012B00053503D322C322C32300D0A0053656E648F
:1012C00020537461747573206F757420736572692F
:1012D000616C20706F72742E2E2E0D0A0053656E95
:1012E00064696E6720494E495420746F20726164AE
:1012F000696F2E2E2E0D0A0053657269616C2043B2
:101300006F6E666967204D6F64652E0D0A002B2B8A
:101310002B2D2D2D2053657269616C20696E7075BF
:1013200074207265636569766564202D2D2D2B2BE5
:101330002B003E3E3E3E3E3E3E3E20205344532048
:10134000737461727420706F736E202D2000546965
:101350006D657220657870697265642C20657869A6
:1013600074696E672053657269616C20436F6E66A5
:101370006967204D6F64652E0D0A002A2A2A2D2DDB
:101380002D53657269616C20436F6E6669672074C6
:10139000696D657220657870697265642E0D0A004A
:1013A0004669726D776172652056657273696F6EFA
:1013B000202D2000455250002733323800486172FA
:1013C0006477617265206973202D20000D0A2A2A36
:1013D0002A2A2A2B2B2B2B2B2D2D2D2D2D2B2B2B56
:1013E0002B2B2A2A2A2A2A0D0A000D0A002C005724
:1013F000616B652074686520526164696F20757047
:101400002E2E2E0D0A00526164696F536C65657053
:10141000436F756E746572206861732072756E20FB
:101420006F75742E2E2E2E0D0A0050757420526189
:1014300064696F20746F20536C6565702E2E2E0DBD
:101440000A00526164696F57616B65436F756E7412
:101450006572206861732072756E206F75742E2E10
:101460002E2E0D0A00736563200D0A005065726907
:101470006F6469632054696D657220726574726966
:1014800067676572656420746F200020686173204F
:10149000657870697265640D0A002D2074696D6548
:1014A00072204E6F2E0011241FBECFEFD8E0DEBF9A
:1014B000CDBF12E0A0E0B1E0E4EFF3E602C005909A
:1014C0000D92AA34B107D9F726E0AAE4B2E001C030
:1014D0001D92A138B207E1F70E9403130C94F83172
:1014E0000C940000FB01482F50E096E0899FD0014A
:1014F0001124A050BF4F12962D913C9113978083D9
:10150000822F8F709FEF980F9C3010F4818301C061
:10151000118224FF03C081E0828301C0128232FF66
:1015200003C081E0848301C0148275E0369527955D
:101530007A95E1F7822F87709FEF980F953010F41E
:10154000838301C0138263E0369527956A95E1F79E
:10155000622F63708FEF860F833008F060E0C9015F
:1015600023E0969587952A95E1F735E0880F991F36
:101570003A95E1F726E0249FD001259FB00D112474
:10158000A050BF4F14962C912F71822B6623A9F087
:10159000613039F46CE3689F9001699F300D11242C
:1015A0000BC0623081F460E17EE0869F9001879FEE
:1015B000300D969F300D1124C901A0E0B0E0858365
:1015C0009683A783B08786E0849FD001859FB00D66
:1015D0001124A050BF4F8D919C91928781870895CF
:1015E0001F93CF93DF930E94292782E991E00E9405
:1015F000592A8091620590E00E940B278AEE93E1C0
:101600000E94592A80916305882309F4DCC00E9456
:10161000292782E891E00E94592AE09163058E2FE4
:1016200090E0FC013197EB30F10508F0CCC0EC5CA8
:10163000FF4F809164050C9414319091A20588238A
:1016400011F0906207C09F7D05C09091A20588238C
:1016500021F090619093A205B6C09F7EFBCF909140
:10166000A205882311F09860F5CF977FF3CF909172
:10167000A205882311F09460EDCF9B7FEBCF909172
:10168000A205882311F09260E5CF9D7FE3CF909172
:10169000A205882311F09160DDCF9E7FDBCF909172
:1016A000A205882311F09064D5CF9F7BD3CF909172
:1016B000A205882311F09068CDCF9F77CBCF909172
:1016C0009E05882311F0946007C09B7F05C0909110
:1016D0009E05882321F0926090939E0574C09D7FA3
:1016E000FBCF209192053091930534FF61C08111A9
:1016F0006AC084E791E00E94592A80917005909118
:1017000071050E940B2786E691E00E94592A8BE71B
:1017100090E00E940B2785E591E00E94592ACBE7D3
:10172000D0E080917005909171059E01281B390BC6
:10173000C9010E940B2784E491E00E94592A8091FC
:1017400092059091930546E0969587954A95E1F725
:101750008F71992714E69C01129FC001139F900D71
:1017600011240E940B278AEE93E10E94592A80914E
:10177000700590917105C81BD90B809192059091CD
:10178000930556E0969587955A95E1F78F719927BD
:10179000189F9001199F300D1124C217D30798F09C
:1017A0008091A40581608093A4058CE191E009C03B
:1017B000882349F08091A40581608093A40584EF7B
:1017C00090E00E94592A80916505882309F492C00F
:1017D000833009F445C048F490919C058130E1F1D3
:1017E000823009F082C0926038C0843009F454C05D
:1017F000853009F07AC08091A3054091670550912A
:1018000068056091690570916A0540934E02509396
:101810004F02609350027093510240934A025093DA
:101820004B0260934C0270934D0288618093A30534
:1018300080919C05806180939C0584E580935A0289
:1018400082E480935B0210925C028AEC90E00E943A
:10185000592A88EA90E047C0916090939C0545C062
:1018600080919C05806180939C058091620590E049
:10187000FC01EE0FFF1F8E0F9F1FFC01EC5CFD4F64
:10188000E491E0935A02FC01EB5CFD4FE491E0939C
:101890005B0210925C0229C08091A305886080934E
:1018A000A3058091670590916805A0916905B091A5
:1018B0006A0580934E0290934F02A0935002B0931A
:1018C000510220916B0530916C0530936E05209389
:1018D0006D0580934A0290934B02A0934C02B09303
:1018E0004D028FED90E00E94592A80919C05806402
:1018F00080939C05809163058930B8F54091670518
:10190000509168056091690570916A0590E0880FB3
:10191000991F880F991FFC01E35AF94F4115510592
:1019200061057105F1F0408351836283738388E917
:1019300090E00E94592A8091630590E00E940B2755
:1019400083E990E00E94592A80916705909168058B
:101950000E940B278CE890E0DF91CF911F910C94AF
:10196000592A1082118212821382DF91CF911F9126
:1019700008950E94292788E192E00E94592A0E9436
:10198000F00A8091650581111AC080916B059091D4
:101990006C050097A1F090935806809357068091AC
:1019A0009D058F7E80939D0580919C05806480932A
:1019B0009C050E94292783EF91E00C94592A0895F1
:1019C0000E94292785ED91E00E94592A60916B05BC
:1019D00070916C0580E090E00E9401278AEE93E10F
:1019E0000E94592A0E94F00A809166058823A1F07E
:1019F0008EEA91E00E94592A89E495EC909358066A
:101A00008093570680919D058F7E80939D058091E0
:101A10009C05806480939C05089580E480937C00FD
:101A200087E880937A00089515B884B18F6384B9EC
:101A300018B887B18F6887B98AB18AB90C940D0D2F
:101A4000909175058091A205981759F10E94292758
:101A500081E293E00E94592A80919F0584FF04C08F
:101A60008CE093E00E94F22C8091A2058F7385B9DF
:101A70008091A20582958F7098B18C70937F892B8D
:101A800088B98091A205809375058AEE93E10E9442
:101A9000592A80919F0584FF04C08AEE93E10C943B
:101AA000F22C089589B180958C7F909177058917E4
:101AB00009F12091740590919E05821318C090FD44
:101AC00019C0209179052F5F2A3F19F020937905DD
:101AD0000895109279052091A0052160282B20936C
:101AE000A005916090939E058093770508959E7F51
:101AF00090939E05809374051092790508958091C6
:101B0000590690915A06009709F4AFC0803120E839
:101B1000920709F455C010F5843020E8920709F4C3
:101B200042C048F48330904809F09BC00E942927A6
:101B300082EF92E03CC0863020E89207E9F18830DD
:101B4000904809F08EC00E94292785EB92E00E9400
:101B5000592AAAE7B5E080E090E048C08B302EE833
:101B6000920709F45AC088F4823120E89207B1F153
:101B70008631904809F075C08091A40580628093F9
:101B8000A40580919C05806426C082312FE99207CC
:101B900009F463C084319F4909F063C00E94241B8B
:101BA0000E941B1B5EC00E94292787ED92E00E94C5
:101BB000592A0E94241B55C080919C0582640BC049
:101BC000109250068BE08093510686E080934F067A
:101BD00080919C058C6480939C05EBCF8CE0809376
:101BE000500685E18093510685E0F0CFFC01EE556B
:101BF000F94F259134912D933D93069686369105A4
:101C0000A9F780919D05806280939D050E942927F8
:101C100082EA92E00E94592A24C00E94292788E87B
:101C200092E00E94592AEDE5F6E084819581A68133
:101C3000B781892B8A2B8B2B21F014821582168277
:101C40001782349686E0ED37F80779F71092A205EF
:101C50000E9429278AE792E0AACF0E94241B0E94B3
:101C6000091B10925A061092590608950F931F935C
:101C7000CF93DF930E94520D8091A00580FF2DC16C
:101C800020917605682F622720936F058093760553
:101C90005091A50588E090E040E030E0A9E0B0E098
:101CA000E1E0F0E0669560FF14C0ED01C81BD90BC0
:101CB000890102C015950795CA95E2F7EF01082E34
:101CC00001C0CC0F0A94EAF700FF02C05C2B01C0F0
:101CD0004C2B019739F75093A5054093A00542FF7F
:101CE00011C00E94292780EA93E00E94592A8DE5BD
:101CF00093E00E94592A62E675E080E00E94720A31
:101D00000E94B90C8091A00583FF11C00E94292771
:101D100080EA93E00E94592A89E593E00E94592ABB
:101D200062E675E081E00E94720A0E94B90C80911F
:101D3000A00584FF11C00E94292780EA93E00E9439
:101D4000592A85E593E00E94592A62E675E082E00F
:101D50000E94720A0E94B90C8091A00585FF11C0F3
:101D60000E94292780EA93E00E94592A81E593E0A6
:101D70000E94592A62E675E083E00E94720A0E947E
:101D8000B90C8091A00586FF11C00E94292780EA26
:101D900093E00E94592A8DE493E00E94592A62E65A
:101DA00075E084E00E94720A0E94B90C8091A0053F
:101DB00087FF11C00E94292780EA93E00E94592AD8
:101DC00089E493E00E94592A62E675E085E00E946A
:101DD000720A0E94B90C8091A50582FF11C00E9471
:101DE00029278DE893E00E94592A85E493E00E9418
:101DF000592A62E675E086E00E94720A0E94B90CD8
:101E00008091A50583FF11C00E9429278DE893E0EA
:101E10000E94592A81E493E00E94592A62E675E003
:101E200087E00E94720A0E94B90C8091A50584FF88
:101E300011C00E9429278DE893E00E94592A8DE362
:101E400093E00E94592A62E675E088E00E94720AD7
:101E50000E94B90C8091A50585FF11C00E94292719
:101E60008DE893E00E94592A89E393E00E94592A61
:101E700062E675E089E00E94720A0E94B90C8091C6
:101E8000A50586FF11C00E9429278DE893E00E94D6
:101E9000592A85E393E00E94592A62E675E08AE0B8
:101EA0000E94720A0E94B90C8091A50587FF11C09B
:101EB0000E9429278DE893E00E94592A81E393E04C
:101EC0000E94592A62E675E08BE00E94720A0E9425
:101ED000B90C1092A0051092A5050E94200DDF916B
:101EE000CF911F910F910C947F0D90917C00987F62
:101EF0008770892B80937C0080917A008064809326
:101F00007A0080917A0086FDFCCF809178009091D4
:101F1000790008950F931F93CF93DF938AEE93E197
:101F20000E94592A0AE715E0C0E0D0E00E94292764
:101F300082EC95E00E94592ACE010E940B278DEB7E
:101F400095E00E94592AF801619171918F0180E01A
:101F500090E00E9401278AEE93E10E94592A21967F
:101F6000C131D10519F781E090E00E94C231C82F3C
:101F70000E9429278FEA95E00E94592A8C2F90E031
:101F80000E940B278AEE93E10E94592A81EA95E08C
:101F90000E94592AC2E0D0E0CE010E94CA318C01D1
:101FA0000E94292784E995E00E94592ACE010E94C7
:101FB0000B278FE895E00E94592AB80180E090E055
:101FC0000E9401278AEE93E10E94592A2296C43288
:101FD000D10511F70E9429278AE795E00E94592A26
:101FE000C6E2D0E00E9429278DE695E00E94592A9A
:101FF000CE010E940B2789E695E00E94592ACE0166
:102000000E94CA31BC0180E090E00E94012786E670
:1020100095E00E94592ACE0102960E94CA31BC0165
:1020200080E090E00E94012783E695E00E94592A13
:10203000CE0104960E94CA31BC0180E090E00E946B
:1020400001278AEE93E10E94592A2696CA3AD105C1
:1020500049F6DF91CF911F910F910895CF92DF92B2
:10206000EF92FF92CF93DF93CAE7D5E088859985F9
:10207000AA85BB858093520290935302A093540289
:10208000B0935502CE84DF84E888F9880E9429271E
:102090008DE495E00E94592A60915202709153029A
:1020A00080915402909155020E9401278AEE93E19B
:1020B0000E94592A0E94292788E395E00E94592A04
:1020C000C701B6010E9401278AEE93E10E94592AB6
:1020D000CA8CDB8CEC8CFD8C0E94292783E295E076
:1020E0000E94592AC701B6010E9401278AEE93E196
:1020F0000E94592ACE8CDF8CE8A0F9A00E942927E3
:102100008EE095E00E94592AC701B6010E9401277E
:102110008AEE93E1DF91CF91FF90EF90DF90CF9027
:102120000C94592A20919205309193058091A10534
:1021300036FF08C080648093A1050E94292784EEA1
:1021400094E007C08F7B8093A1050E94292789EB2B
:1021500094E00E94592A2091920530919305809134
:10216000A10537FF08C080688093A1050E94292738
:1021700088E894E007C08F778093A1050E94292703
:1021800086E694E00C94592A0F931F93CF93DF9324
:1021900080919D0585FF4DC065EA81E090E00E9439
:1021A000D0310AE715E0C2E0D0E0F8016191719109
:1021B0008F01CE010E94E2312296C432D105A9F7E7
:1021C00000E011E0C6E2D0E0F80160817181CE014B
:1021D0000E94E231F80162817381CE0102960E9471
:1021E000E231F80164817581CE0104960E94E231EA
:1021F00026960A5F1F4FCA3AD10531F780919D0597
:102200008F7D80939D050E94292789ED95E00E948E
:10221000592A0E942E100E9429278AEC95E00E94DC
:10222000592A0E948A0FDF91CF911F910F910C9430
:102230009210DF91CF911F910F91089580918C059D
:1022400090918D05892B09F453C080918E05909152
:102250008F05892B09F44CC080919E05886080937E
:102260009E050E94292783E494E00E94592A82E374
:1022700094E00E94592A6091580470915904072EE5
:10228000000C880B990B0E94012786E294E00E94C3
:10229000592A80918E0590918F05009749F190936E
:1022A0005704809356040E94292784E094E00E94FA
:1022B000592A84EF93E00E94592A60915604709144
:1022C0005704072E000C880B990B0E94012788EEFB
:1022D00093E00E94592A0E94292784EB93E00E94F0
:1022E000592A0E94762080919E05806180939E05E8
:1022F0000895CF92DF92EF92FF920F931F93CF93A7
:10230000DF9381E090E00E94C231853A09F042C03B
:102310000E9429278BE896E00E94592A0AE715E0D7
:10232000C2E0D0E0CE010E94CA31F80181939193BE
:102330008F012296C432D105A9F70E9429278EE683
:1023400096E00E94592A00E011E0C6E2D0E0CE01FA
:102350000E94CA31F80191838083CE0102960E94C7
:10236000CA31F80193838283CE0104960E94CA3158
:10237000F8019583848326960A5F1F4FCA3AD105D8
:1023800031F70E9429278AE496E00E94592A8BE3BC
:1023900096E03EC00E94292787E296E00E94592AD3
:1023A00002EA16E08AE7E82E85E0F82EC0E0D0E0E9
:1023B000F801859194916701F701819391937F01D1
:1023C0000E9429278FE196E00E94592ACE010E949F
:1023D0000B278AE196E00E94592AF60160817181FB
:1023E00080E090E00E9401278AEE93E10E94592A42
:1023F00021960A5F1F4FC131D105D1F60E942927CE
:1024000087E096E00E94592A0E94292788EF95E0EC
:102410000E94592A0E948A0F0E942E100E94921038
:102420000E941E1180918005909181059093570222
:1024300080935602DF91CF911F910F91FF90EF9003
:10244000DF90CF90089580919F0584FD24C00E9465
:102450006B2580919D0582FF1EC08091A10580FDA6
:102460001AC08091800590918105892BA1F08091FF
:10247000A30582FF10C00E94292784E097E00E94F4
:10248000592A80919C05816480939C058091A305C5
:102490008B7F8093A30580919C0586FD01C087FDFD
:1024A0000C94B32008958FEF8093A10510929D05A1
:1024B00010929E051092A40510929C051092A305FF
:1024C0001092A0051092A5051092A20510929F05EA
:1024D00008958AEA95E09093A7058093A6059093C6
:1024E000A9058093A80508951F920F920FB60F9229
:1024F00011248F939F938CE29FEC9093850080939F
:10250000840080914A0690914B06892B49F0809176
:102510004A0690914B06019790934B0680934A068A
:1025200080914C068F5F80934C068091A105877F38
:102530008093A10590914C06953099F410924C0629
:1025400088608093A10580919E05806280939E059E
:10255000809158029091590201969093590280936C
:1025600058029F918F910F900FBE0F901F9018955A
:102570009FE088E10FB6F894A895809360000FBEA5
:10258000909360000895F89410928000E1E8F0E0E4
:1025900010828CE29FEC9093850080938400808170
:1025A00084608083EFE6F0E08081816080830E9418
:1025B000B812789408951F920F920FB60F921124BB
:1025C0002F933F934F935F936F937F938F939F933B
:1025D000AF93BF93EF93FF930E94292787E297E081
:1025E0000E94592AFF91EF91BF91AF919F918F91D6
:1025F0007F916F915F914F913F912F910F900FBEFF
:102600000F901F9018950E94140D0E9453120E9463
:10261000C3120E943E270E9479110E9469122091E4
:10262000920530919305C901877099276091A205A1
:1026300035FD1FC046E050E0481B590B21E030E05B
:1026400001C0220F4A95EAF7262B2093A20580911C
:10265000A10586608093A1050E94682A0E94B42A81
:102660000E9454290E94360E0E9423120E94C41018
:10267000F3CF46E050E0481B590B81E090E001C0E9
:10268000880F4A95EAF7809586238093A205DFCFCD
:10269000CF92DF92EF92FF920F931F93CF93DF932E
:1026A00000D000D000D0CDB7DEB71A821982FE016B
:1026B000339684E0DF011D928A95E9F786E00E9457
:1026C000750FBC01990F880B990B0E948E2F20E08B
:1026D00030E040EA50E40E943E3020E030E040E844
:1026E0005AE30E943E3020E030E040EA5EE30E9480
:1026F000E42E6B017C012DEC3CEC4CEC5DE30E9484
:10270000DF2E87FF03C0C12CD12C760166EB71E070
:1027100082E792E00E9457316FEB71E082E792E02E
:102720000E944C3120E030E048EC52E4C701B60191
:102730000E943E300E94562F6B017C014AE08E01C0
:102740000F5F1F4FB801C6010E948231F80101904E
:102750000020E9F73197E01B4D813C812B819A8164
:102760008981E43038F4EF5F432F322F292F982FDF
:1027700080E3F7CF3C834D832B839A8389834DE598
:1027800052E064E070E0C8010E94032D6DE572E044
:1027900082E792E00E944C3164EC71E082E792E0C3
:1027A0000E944C3110919E0511FF03C067EC71E04F
:1027B00002C06AEC71E082E792E00E944C3164EC66
:1027C00071E082E792E00E944C3112FF03C067EC97
:1027D00071E002C06AEC71E082E792E00E944C3145
:1027E0000E94292785E497E00E94592AC6010E9489
:1027F0000B2780919E0581FF03C082E497E002C011
:102800008FE397E00E94592A80919E0582FF03C0C2
:102810008CE397E002C089E397E00E94592A8AEE90
:1028200093E10E94592A26960FB6F894DEBF0FBE98
:10283000CDBFDF91CF911F910F91FF90EF90DF906F
:10284000CF900895FF920F931F93CF93DF9300D003
:1028500000D000D0CDB7DEB71A821982FE013396C0
:1028600084E0DF011D928A95E9F780919F0584FD40
:102870000DC066EB71E082E792E00E9457316DEC8B
:1028800071E082E792E00E944C3106C06DEC71E08D
:1028900082E792E00E9457314AE08E010F5F1F4F9E
:1028A000B80186E191E10E949531F8010190002084
:1028B000E9F73197BF01601B710B4DE552E0C8018C
:1028C0000E94032D6DE572E082E792E00E944C3198
:1028D00064EC71E082E792E00E944C31E1E6F6E0C0
:1028E00081E090E0F12C21E030E041915191619143
:1028F0007191452B462B472B39F0A901082E01C0B9
:10290000440F0A94EAF7F42A01968930910569F791
:102910008091A2054AE0B80190E00E949531F8014B
:1029200001900020E9F73197BF01601B710B4DE565
:1029300052E0C8010E94032D6DE572E082E792E04B
:102940000E944C3164EC71E082E792E00E944C31CD
:102950002091A0058F2D90E04AE0B801922B0E94B3
:102960009531F80101900020E9F73197BF01601B14
:10297000710B4DE552E0C8010E94032D6DE572E038
:1029800082E792E026960FB6F894DEBF0FBECDBF69
:10299000DF91CF911F910F91FF900C944C31EF92EA
:1029A000FF920F931F93CF93DF93CDB7DEB72C9792
:1029B0000FB6F894DEBF0FBECDBF1A821982FE019A
:1029C00033968AE0DF011D928A95E9F780919F0591
:1029D00084FD0DC066EB71E082E792E00E94573102
:1029E00066ED71E082E792E00E944C3106C066ED30
:1029F00071E082E792E00E9457318AE7E82E85E095
:102A0000F82E8E010F5F1F4F4AE0B801F701819148
:102A100091917F010E949531F80101900020E9F722
:102A20003197BF01601B710B4DE552E0C8010E9458
:102A3000032D6DE572E082E792E00E944C3164EC78
:102A400071E082E792E00E944C31FCE9EF16F5E07C
:102A5000FF06D1F64AE0B80186E191E10E94953186
:102A6000F80101900020E9F73197BF01601B710B5D
:102A70004DE552E0C8010E94032D6DE572E082E74A
:102A800092E02C960FB6F894DEBF0FBECDBFDF915B
:102A9000CF911F910F91FF90EF900C944C31EF92DA
:102AA000FF920F931F93CF93DF93CDB7DEB72C9791
:102AB0000FB6F894DEBF0FBECDBF1A821982FE0199
:102AC00033968AE0DF011D928A95E9F780919F0590
:102AD00084FD14C066EB71E082E792E00E945731FA
:102AE0006FED71E082E792E00E944C31FF24F39495
:102AF0008E010F5F1F4F86E0E82E93C06FED71E0EF
:102B000082E792E00E945731F1CF80915006909178
:102B10005106981708F496C090E040E1B8018F5B29
:102B20009F4F0E949531C8010E947831BC0182E715
:102B300092E00E944C31E0915006EE9EF00111248B
:102B4000E050FF4F4AE0B801808191810E949531A9
:102B5000F80101900020E9F73197BF01601B710B6C
:102B60004DE552E0C8010E94032D6DE572E082E759
:102B700092E00E944C3164EC71E082E792E00E94A6
:102B80004C31E0915006EE9EF0011124E050FF4FD1
:102B90004AE0B801828193810E949531F801019049
:102BA0000020E9F73197BF01601B710B4DE552E042
:102BB000C8010E94032D6DE572E082E792E00E9459
:102BC0004C3164EC71E082E792E00E944C31E0917C
:102BD0005006EE9EF0011124E050FF4F4AE0B8018C
:102BE000848195810E949531F80101900020E9F7D8
:102BF0003197BF01601B710B4DE552E0C8010E9487
:102C0000032D6DE572E082E792E00E944C31F3946F
:102C1000809150068F5F8093500690914F069F15CC
:102C200030F480914F068F1508F06FCF0BC0909154
:102C300051069817B0F364EC71E082E792E00E94CD
:102C40004C31EFCF2C960FB6F894DEBF0FBECDBF40
:102C5000DF91CF911F910F91FF90EF900895CF9347
:102C6000DF93CDB7DEB72C970FB6F894DEBF0FBE5B
:102C7000CDBF1A821982FE0133968AE0DF011D92D0
:102C80008A95E9F780919F0584FD0DC066EB71E0A0
:102C900082E792E00E94573168EE71E082E792E0AD
:102CA0000E944C3106C068EE71E082E792E00E941B
:102CB0005731EAE5F2E001900020E9F73197BF01D2
:102CC0006A557240AE014F5F5F4F8AE592E00E9405
:102CD000032DBE016F5F7F4F82E792E00E944C316F
:102CE0002C960FB6F894DEBF0FBECDBFDF91CF910B
:102CF000089580919C0586FF6BC090919D0594FD81
:102D000003C0806880939C0580919C0580FF0FC064
:102D10008E7F80939C050E94481380919D05806161
:102D200080939D0580919C05806880939C0580918F
:102D30009C0581FF0FC08D7F80939C050E94CF145E
:102D400080919D05806180939D0580919C058068A0
:102D500080939C058091A40585FF0FC08F7D809393
:102D6000A4050E94221480919D05806180939D0599
:102D700080919C05806880939C0580919C0582FFD2
:102D80000FC08B7F80939C050E944F1580919D05FD
:102D9000806180939D0580919C05806880939C054F
:102DA00080919C0584FF0FC08F7E80939C050E94BC
:102DB0002F1680919D05806180939D0580919C05D3
:102DC000806880939C0580919C058F7B80939C05F7
:102DD00008950E9429278BE69CE00E94592A0E94B0
:102DE00029278BE59CE00E94592A809176039091D7
:102DF00077030E940B2784E49CE00E94592A80916B
:102E00008C0190918D010E940B278AEE93E10E9424
:102E1000592A0E94292780E39CE00E94592A8EE2C9
:102E20009CE00E94F22C8AEE93E10E94F22C0E9418
:102E3000472880919D05806480939D050E942927E5
:102E40008AE09CE00E94592A81E090E090938B01F7
:102E500080938A01909389018093880190938701E0
:102E60008093860190938501809384011092710371
:102E700008950F931F93CF93DF930E94292786EF26
:102E80009BE00E94592A60917702809176020E940D
:102E90002E2D182FC82FCE71D0E0D695C7950E9441
:102EA00029278CEE9BE00E94592ACE010E940B2715
:102EB0008AEE93E10E94592ACE010197089708F003
:102EC00066C0C730D10518F406E00C1B02C00C2FF9
:102ED000015010FF18C00E94292784EE9BE00E9439
:102EE000592A80919F0584FF04C08CED9BE00E94CD
:102EF000F22C81E090E001C0880F0A95EAF79091EA
:102F0000A205892B18C00E94292783ED9BE00E940F
:102F1000592A80919F0584FF04C08AEC9BE00E949F
:102F2000F22C81E090E001C0880F0A95EAF78095C5
:102F30009091A20589238093A20510728FEB9BE0EC
:102F40000E94592ACE010E940B278AEE93E10E942B
:102F5000592A80919F0584FF25C085EB9BE00E9444
:102F6000F22C48E26BE773E0CE010E94EB2D8BE779
:102F700093E00E94E62C8AEE93E10E94F22C11234A
:102F800031F00E9429278EE99BE00E94592A809106
:102F90009F0584FF09C086E990E090934B068093DB
:102FA0004A0602C01111EDCFDF91CF911F910F9111
:102FB0000895CF930E94292783E89BE00E94592A15
:102FC00060917702809176020E942E2DC82F0E9478
:102FD00029278AE69BE00E94592A8C2F90E00E94C4
:102FE0000B278AEE93E10E94592ACF730E9429276A
:102FF0008EE59BE00E94592A8C2F90E00E940B27BF
:103000008AEE93E10E94592A0E9429278BE49BE0D3
:103010000E94592A8091A20590E00E940B278AEE17
:1030200093E10E94592A8091A205807C8093A20599
:103030000E94292788E39BE00E94592A8091A205DB
:1030400090E00E940B278AEE93E10E94592A80911A
:10305000A205C82BC093A2050E94292785E29BE008
:103060000E94592A8091A20590E00E940B278AEEC7
:1030700093E10E94592A80919F0584FF06C086E94A
:1030800090E090934B0680934A06CF9108953F922B
:103090004F925F926F927F928F929F92AF92BF9268
:1030A000CF92DF92EF92FF920F931F93CF93DF9314
:1030B0000E9429278CE09BE00E94592A80919F055D
:1030C00084FF06C086E990E090934B0680934A0601
:1030D00061E1562EC2E0D0E072E7872E72E0972EB3
:1030E000EAE03E2EF6E04F2EA6E96A2E712CF4019E
:1030F00001900020E9F73197E257F240CE17DF0741
:1031000008F0BCC08E010E581D4FF801618180810E
:103110000E942E2D22965FEBE52EE80E0E942927B5
:103120008AEF9AE00E94592AF12CC7010E940B27CE
:103130008AEE93E10E94592AC12CD12CF40101900E
:103140000020E9F73197E257F240CE17DF0798F5F4
:10315000F801638182810E942E2DA82EB12CFCE201
:10316000AF16B10459F03C9CC0013D9C900D112458
:103170006C0120E3C21AD108CA0CDB1C0E9429276B
:103180008CEE9AE00E94592AC5010E940B278DED12
:103190009AE00E94592AB60180E090E00E9401273F
:1031A0008AEE93E10E94592A22960E5F1F4F8CE20D
:1031B000A816B10419F64E9CC0014F9C900D112425
:1031C000FC01E256F94F259134918701000F111F40
:1031D000C216D306C0F0FC01E056F94F2591349198
:1031E000C216D30680F4F801E658FA4FD182C082A5
:1031F00080919D05806280939D050E9429278EE520
:1032000097E00E94592A0E94292782ED9AE00E94A5
:10321000592AC7010E940B2786EC9AE00E94592A7E
:1032200006581A4FF8016081718180E090E00E9499
:1032300001278AEE93E10E94592A80919F0584FF1D
:103240001AC08BEB9AE00E94F22CC7010E941F2744
:103250008FEA9AE00E94F22CF8016081718180E08F
:1032600090E00E9415278AEE93E10E94F22C709262
:103270004B0660924A065A94511039CFDF91CF9194
:103280001F910F91FF90EF90DF90CF90BF90AF9084
:103290009F908F907F906F905F904F903F90089598
:1032A0006F927F928F929F92AF92BF92CF92DF9256
:1032B000EF92FF920F931F93CF93DF930E942927E2
:1032C0008FE89AE00E94592A80919F0584FF06C0EA
:1032D00086E990E090934B0680934A06C4E0D0E0E4
:1032E00082E7C82E82E0D82E9AE0892E26E0922E20
:1032F00036E9632E712CF60101900020E9F7319731
:10330000E257F240CE17DF0708F074C19E012E5835
:103310003D4F7901F901618180810E942E2D0FEBD3
:10332000080F0E9429278FE79AE00E94592A10E08F
:10333000C8010E940B278AEE93E10E94592A229627
:10334000A12CB12CF60101900020E9F73197E2574A
:10335000F240CE17DF07D0F4F701638182810E942B
:103360002E2D90E08C32910559F08A9C90018B9C17
:10337000300D11245901F0E3AF1AB108A80EB91E9F
:10338000229622E0E20EF11C8C97E1F60E9429279A
:1033900083E69AE00E94592AB50180E090E00E94FD
:1033A00001278AEE93E10E94592A3FEFA316B30644
:1033B000A1F0909EF001919EF00D1124E050FF4F7E
:1033C000B182A08280919D05806280939D050E94BC
:1033D00029278EE597E00E94592ACE018E589D4FED
:1033E0005C01E12CF12CF60101900020E9F7319706
:1033F000E257F240CE17DF07D0F4F50161818081FA
:103400000E942E2D90E08C32910559F08E9C9001F7
:103410008F9C300D11247901F0E3EF1AF108E80ECA
:10342000F91E229622E0A20EB11C8C97E1F60E94B2
:10343000292787E49AE00E94592AB70180E090E0AA
:103440000E9401278AEE93E10E94592A3FEFE3167A
:10345000F306A1F0909EF001919EF00D1124E05032
:10346000FF4FF382E28280919D05806280939D05EB
:103470000E9429278EE597E00E94592ACE018E5896
:103480009D4F5C01E12CF12CF60101900020E9F741
:103490003197E257F240CE17DF07D0F4F501618192
:1034A00080810E942E2D90E08C32910559F08E9CE7
:1034B00090018F9C300D11247901F0E3EF1AF1088F
:1034C000E80EF91E229622E0A20EB11C8C97E1F6BE
:1034D0000E9429278BE29AE00E94592AB70180E0D6
:1034E00090E00E9401278AEE93E10E94592A3FEF63
:1034F000E316F306A1F0909EF001919EF00D1124C9
:10350000E050FF4FF582E48280919D0580628093B8
:103510009D050E9429278EE597E00E94592A0E9466
:10352000292780E29AE00E94592AC8010E940B27AD
:1035300084E19AE00E94592A909EC001919E900DCC
:103540001124FC01E050FF4F7F016081718180E018
:1035500090E00E9401278DEE93E10E94592AF70125
:103560006281738180E090E00E9401278DEE93E1FB
:103570000E94592AF7016481758180E090E00E94E1
:1035800001278AEE93E10E94592A80919F0584FFCA
:10359000B2CE89E09AE00E94F22CC8010E941F2757
:1035A0008DEF99E00E94F22CF7016081718180E03B
:1035B00090E00E9415278DEE93E10E94F22CF70116
:1035C0006281738180E090E00E9415278DEE93E187
:1035D0000E94F22CF7016481758180E090E00E94E6
:1035E00015278AEE93E10E94F22C70924B066092AE
:1035F0004A0681CEDF91CF911F910F91FF90EF90FE
:10360000DF90CF90BF90AF909F908F907F906F9002
:1036100008950E9429278DEE99E00E94592A8DEC89
:1036200099E00E94592A89EC99E00E94F22C8AEED6
:1036300093E10C94F22C0E9429278CEB99E00E94D4
:10364000592A1092A205FFCF0E9429278EE899E0FF
:103650000E94592A8091A10586FDB6C04091550669
:103660005091560620918205309183058091520633
:10367000909153062417350761F420918405309109
:1036800085052817390729F40E9429278CE799E036
:10369000A5C0509383054093820590938505809340
:1036A000840520919D05206220939D05A0E0B0E057
:1036B000DC019927882760E070E0842B952BA62BEE
:1036C000B72B8093520290935302A0935402B0936D
:1036D00055020E94292780E699E00E94592A0E94FB
:1036E00029278EE597E00E94592A0E94292789E41C
:1036F00099E00E94592A609182057091830580E0CB
:1037000090E00E94012780E399E00E94592A60918D
:1037100084057091850580E090E00E9401278AEE83
:1037200093E10E94592A0E94292787E199E00E948B
:10373000592A6091520270915302809154029091E3
:1037400055020E9401278AEE93E10E94592A809136
:103750009F0584FF45C08EE597E00E94F22C80E033
:1037600099E00E94F22C609182057091830580E0BF
:1037700090E00E94152787EE98E00E94F22C60915D
:1037800084057091850580E090E00E9415278AEEFF
:1037900093E10E94F22C8EEC98E00E94F22C609152
:1037A00052027091530280915402909155020E94EE
:1037B00015278AEE93E10E94F22C86E990E090931F
:1037C0004B0680934A0608950E94292786E998E0CF
:1037D0000E94592A0E94292786E898E00C94592AC9
:1037E00008954F925F926F927F92BF92CF92DF9235
:1037F000EF92FF920F931F93CF93DF93CDB7DEB776
:103800002D970FB6F894DEBF0FBECDBF1C861B866A
:103810001D861F821E8283E0FE013896DF01282F5D
:103820001D922A95E9F71A8219823597DF011D92B8
:103830008A95E9F780919F0585FF09C08F7D809368
:103840009F0583E090E0909385018093840100912F
:103850008401109185010330110509F464C244F418
:103860000130110531F10230110509F410C28FC386
:103870000430110509F405C30530110509F087C3AB
:103880000E94B4261092710310927A031092790369
:1038900081E090E090938501809384010E94292724
:1038A00085E69DE00E94592A8AEE93E10E94592AFA
:1038B00074C380917103882399F00E94292780E8BE
:1038C0009FE00E94592A109387010093860110936C
:1038D0008B0100938A01109389010093880106C02F
:1038E0000E9429278BE59FE00E94592A84E080935B
:1038F000710360918703709188032CE240E289E8AC
:1039000093E00E94C326182F0E94292785E49FE098
:103910000E94592A8DE592E00E944D2A8AEE93E199
:103920000E94592A8DE592E00E941A319093730308
:10393000809372030E94292788E39FE00E94592AFE
:1039400080917203909173030E940B278AEE93E19A
:103950000E94592A612F70E02CE24CE289E893E042
:103960000E94C326B82E0E94292783E19FE00E946F
:10397000592A8DE592E00E944D2A8AEE93E10E9439
:10398000592A809164028983809165028A8380919B
:1039900066028B83809167028C83809168028E839C
:1039A000809169028F8380916A02888780916B027F
:1039B0008987CE0106960E941A318C019093560693
:1039C00080935506CE0101960E941A312C01612C7C
:1039D000712CD301C201F3E0880F991FAA1FBB1FEE
:1039E000FA95D1F7440C551C661C771C840D951D67
:1039F000A61DB71D6C017D0133E0CC0CDD1CEE1C57
:103A0000FF1C3A95D1F7880F991FAA1FBB1FC80E3C
:103A1000D91EEA1EFB1EB701A601E3E0440F551FA5
:103A2000661F771FEA95D1F7CC0CDD1CEE1CFF1C3E
:103A30004C0D5D1D6E1D7F1DDB01CA0123E0880F4B
:103A4000991FAA1FBB1F2A95D1F7440F551F661F48
:103A5000771F840F951FA61FB71F800F911FA11DF1
:103A6000B11D9093560680935506B0935306A093CC
:103A700052068091A10587FF70C00E94292783EE1E
:103A80009EE00E94592A8AEE93E10E94592A809171
:103A90005506909156062091880530918905281782
:103AA000390759F440918A0550918B0520915206AF
:103AB000309153064217530769F1209194053091D4
:103AC00095058217930759F44091960550919705F3
:103AD000209152063091530642175307D9F0209196
:103AE0009805309199058217930759F440919A05EA
:103AF00050919B052091520630915306421753076F
:103B000049F085329B4189F4809152069091530689
:103B10000C9759F40E94292787EC9EE00E94592AAD
:103B20008AEE93E10E94592A18C00E94292782E94F
:103B30009EE00E94592A8AEE93E10E94592A8091C0
:103B40009D058E7F80939D0589E893E090935C06A8
:103B500080935B061092890397C0BB2051F06B2DB8
:103B600070E02CE24CE289E893E00E94C326B82E74
:103B7000F4CF0E94292788E79EE00E94592A8DE50C
:103B800092E00E944D2A8AEE93E10E94592A0E94F7
:103B9000292786E69EE00E94592A89E893E00E9440
:103BA0004D2A84E69EE00E94592A88E59EE00E9404
:103BB000592AE9E8F3E0DF010D900020E9F7CD0193
:103BC0000197895893400E940B278DE592E00E944F
:103BD0001A31909375038093740387E49EE00E94EA
:103BE000592A80917403909175030E940B278AEEE5
:103BF00093E10E94592A85E090E09093850180939B
:103C0000840180917203909173038C30910519F0B7
:103C10008C36910569F482E090E090938501809361
:103C200084018AE090E090934B0680934A0618C086
:103C30008D30910519F08D36910591F484E090E076
:103C400090938501809384018AE090E090934B06E5
:103C500080934A060E94292783E39EE00E94592A06
:103C600080919D058E7F80939D0589E893E09093D8
:103C70005C0680935B061092890380914A069091BE
:103C80004B06892B09F089C185E090E082C10E9432
:103C9000292782E29EE00E94592A80919D0580FF9B
:103CA000ECCF809174039091750373E0969587959E
:103CB0007A95E1F7880F991FE1E9F3E0A2E7B2E016
:103CC0009F01295833408217930718F021912D93B3
:103CD000F7CF0E94292789E19EE00E94592A84E0BB
:103CE00090E00E940B2781E19EE00E94592A80917A
:103CF00074039091750353E0969587955A95E1F773
:103D0000880F991F0E940B2785E09EE00E94592A88
:103D100082E792E00E944D2A81E09EE00E94592AAB
:103D200083E090E036C185E090E090938501809338
:103D3000840160917302809172020E942E2D8A3557
:103D400029F50E9429278CEE9DE00E94592A0E94A5
:103D5000241B60917502809174020E942E2D833283
:103D600019F40E94391789CF853219F40E94D917A6
:103D700084CF9FEB980F923118F40E9447187DCFA3
:103D8000813209F07ACF0E94501977CF6091730287
:103D9000809172020E942E2D8B3409F06BC00E941C
:103DA000292782ED9DE00E94592A0E94241B8091C0
:103DB0009F0584FF06C086E990E090934B068093B0
:103DC0004A0660917502809174020E942E2D8B87A5
:103DD00060917702809176020E942E2D8C871D863D
:103DE00038E9C32E31E0D32E4AE8442E41E0542E68
:103DF00008E411E0B601CE010B960E945E31892BDA
:103E000049F4B3E0CB0ED11C0A5F1F4F4016510698
:103E100089F7B6C00E94292781E693E00E94592ABB
:103E20008AEE93E10E94592AF80180819181909352
:103E30005A068093590698E4692E91E0792E2CE079
:103E4000F22ED3012D913C918091590690915A0602
:103E50002817390739F462E675E08F2D0E94720A3F
:103E60000E94E00CF394B6E06B0E711CE7E1FE12C9
:103E7000E8CFC7CF0E9429278FEB9DE00E94592AE7
:103E80007FC080919D0580FFF8CE0E9429278CEA93
:103E90009DE00E94592A89E893E00E944D2A8AEE0B
:103EA00093E10E94592A60918A03809189030E94BC
:103EB0002E2D1092590680935A0660918C038091A2
:103EC0008B030E942E2D2091590630915A06280FFF
:103ED000311D30935A06209359060E9429278AE7FC
:103EE00093E00E94592A6091590670915A0680E029
:103EF00090E00E9401278AEE93E10E94592A88E40B
:103F0000E82E81E0F82E1CE0D7012D913C918091A4
:103F1000590690915A062817390749F40E94241B24
:103F200062E675E0812F0E94720A0E94E00C1F5F1A
:103F3000B6E0EB0EF11C173139F7809159069091DC
:103F40005A068115EEEF9E0729F40E9429278BE877
:103F50009DE007C081309E4F31F40E94292783E7FE
:103F60009DE00E94592A80919D058E7F80939D053A
:103F700089E893E090935C0680935B061092890336
:103F800085E090E0909385018093840176CE81E076
:103F900090E090938501809384012D960FB6F8945C
:103FA000DEBF0FBECDBFDF91CF911F910F91FF906C
:103FB000EF90DF90CF90BF907F906F905F904F9089
:103FC00008950E9429278DE698E00E94592A82E6EA
:103FD00098E00E94F22C8AEE93E10E94F22C8091EC
:103FE0009D058B7F80939D058091A10587608093BF
:103FF000A1052091920530919305C90187709927F9
:104000006091A20546E050E0481B590B35FD0AC0FF
:1040100021E030E001C0220F4A95EAF7262B2093D9
:10402000A205089581E090E001C0880F4A95EAF763
:10403000809586238093A20508950E9429278EE10A
:1040400098E00E94592A8091710390E00E940B270A
:104050008AEE93E10E94592A0E94292782E098E083
:104060000E94592A80917A0590917B050E940B2726
:104070008AEE93E10E94592A0E94292780EF97E057
:104080000E94592A609158027091590280E090E094
:104090000E9401278AEE93E10E94592A0E94292753
:1040A0008CED97E00E94592A60918E0170918F01EA
:1040B00080E090E00E9401278AEE93E10E94592A55
:1040C0000E9429278BEB97E00E94592A6091940166
:1040D0007091950180E090E00E9401278AEE93E1C3
:1040E0000E94592A8AEE93E10C94592A0E942927AA
:1040F0008AE498E00E94592A429A2FEF81EE94E0D8
:10410000215080409040E1F700C0000042980E949A
:10411000292787E398E00E94592A0E941D20809158
:10412000A40580688093A40508950E9429278DE93D
:1041300097E00E94592A0E94292781E997E00E946E
:10414000592A89E893E00E944D2A8DE797E00E9462
:10415000592A8091790390917A030E940B278AEE65
:1041600093E10C94592AFF920F931F93CF93DF93FF
:1041700000D0CDB7DEB790919F058091710394FF79
:1041800009C0811107C086E090E090938701809379
:10419000860102C0811124C083E0809371030E94D4
:1041A00079160E94292780919D0584FF09C089E224
:1041B00091E10E94592A82E792E00E944D2A0CC0A8
:1041C00085E191E10E94592A609157067091580645
:1041D00080E090E00E9401278AEE93E10E94592A34
:1041E00080917103833009F010C280918601909113
:1041F00087018330910509F4B4C03CF48130910506
:1042000089F0029709F454C0E8C18530910509F49A
:1042100091C10CF429C1069709F0DFC1F12C02E726
:1042200012E0B5C10E9429278DEF90E10E94592A22
:104230000E94B42683EF90E10E94F22C80919D05AC
:1042400084FF03C080EF90E102C08DEE90E10E94F8
:10425000F22C8DEE93E10E94F22C8BEE90E10E9405
:10426000F22C8DEE93E10E94F22C89EE90E10E94F7
:10427000F22C8DEE93E10E94F22C87EE90E10E94E9
:10428000F22C8DEE93E10E94F22C85EE90E10E94DB
:10429000F22C8AEE93E10E94F22C109278038AE0CD
:1042A00090E090934B0680934A0682E090E097C19D
:1042B00080914A0690914B06892B61F40E94292730
:1042C0008DEB90E10E94592A85E090E09093870160
:1042D0008093860180919D0580FF85C1809179033F
:1042E00090917A038130910549F40E94292781EB4E
:1042F00090E10E94592A83E090E071C186309105D7
:1043000049F40E94B4260E94292788E990E10E947E
:10431000592A69C10397E9F40E9429278EE497E09E
:104320000E94592A8DE592E00E944D2A8AEE93E17F
:104330000E94592A0E9429278CE790E10E94592A5D
:104340008AE790E10E94F22C8AEE93E10E94F22C1F
:1043500002C00E949520809178038F5F809378033C
:1043600042C10E94292783E690E10E94592A809148
:104370009D0584FF0EC0E2E7F2E001900020E9F71E
:1043800031978F0102571240000F111F000F111FAC
:104390000BC040E162E772E08091570690915806A9
:1043A0000E94823100E110E00E9429278AE590E115
:1043B0000E94592A609152027091530280915402D6
:1043C000909155020E9401278DEE93E10E94592A97
:1043D000C8010E940B278AEE93E10E94592A0E948D
:1043E000292782E792E00E944D2A88E590E10E9409
:1043F000592A8AEE93E10E94592A8FE490E10E94A3
:10440000F22C60915202709153028091540290916B
:1044100055020E9415278DEE93E10E94F22CC801EF
:104420000E941F278AEE93E10E94F22C82E792E01D
:104430000E94E62C8DE490E10E94F22C8AEE93E13A
:104440000E94F22C8AE090E090934B0680934A06FB
:1044500010927A031092790380919D058E7F80934C
:104460009D0584E090E0BBC080914A0690914B0688
:10447000892B61F40E94292785E290E10E94592A44
:1044800085E090E0909387018093860180919D055F
:1044900080FFA9C08091790390917A0381309105C2
:1044A00089F40E94292788E190E10E94592A80E03E
:1044B00090E10E94592A85E090E0909387018093D3
:1044C000860132C08630910549F40E94B4260E94CC
:1044D000292782EE9FE00E94592A26C00397E9F41B
:1044E0000E9429278EE497E00E94592A8DE592E0E8
:1044F0000E944D2A8AEE93E10E94592A0E942927A0
:104500008AEC9FE00E94592A88EC9FE00E94F22CDE
:104510008AEE93E10E94F22C02C00E9495208091C5
:1045200078038F5F8093780380919D058E7F8093C1
:104530009D0559C080919C058F7B80939C051092AE
:1045400071030E94B42681E090E0909387018093EC
:10455000860180919D058E7F80939D0590919C059D
:10456000892F8F7780939C053091500620915106BA
:104570003217C8F593FF02C0846001C08062809347
:104580009C0580919C05806480939C052CC0F8015B
:1045900001900020E9F73197E257F2408F2D90E02B
:1045A0008E179F0780F4FC01EE58FD4F80818983B0
:1045B00081818A83CE0101960E947E2E0E94D12C99
:1045C000F394F394E4CF8AEE93E10E94F22C86E90F
:1045D00090E090934B0680934A0685E090E090939C
:1045E00087018093860180917803843070F00E9467
:1045F000292785EB9FE00E94592A85E090E090935F
:10460000870180938601109278030F900F90DF91BD
:10461000CF911F910F91FF90089580918A01909101
:104620008B0183309105B1F01CF4019749F01DC155
:104630008430910591F18630910509F4E4C015C1EB
:1046400080917103811128C182E08093710383E01E
:1046500090E00DC10E9429278AE49DE00E94592A1A
:104660008FE39DE00E94592A0E94B4268CE39DE0CE
:104670000E94F22C8AEE93E10E94F22C8AE090E0F4
:1046800090934B0680934A0684E090E090938B01D0
:1046900080938A0110925406089580914A06909161
:1046A0004B06892B91F486E090E090938B018093E8
:1046B0008A018AE090E090938D0180938C010E94A2
:1046C00029278CE29DE00E94592A80919D0580FF58
:1046D0006AC08091790390917A038130910581F5C8
:1046E00010927A03109279030E94292781E29DE0BB
:1046F0000E94592A90919D05892F846080939D0581
:104700008091A1058B7F82608093A10596FD08C0F2
:104710000E94E91682E090E09093950180939401C5
:1047200081E090E090938B0180938A011092710355
:10473000109278038091A3058E7F8093A30518C003
:10474000039779F40E9429278EE497E00E94592A62
:104750008DE592E00E944D2A8AEE93E10E94592A4B
:1047600002C00E949520809178038F5F8093780328
:1047700010927A031092790380917803843070F05C
:1047800086E090E090938B0180938A0110927803E9
:104790008AE090E090938D0180938C0180919D053B
:1047A0008E7F80939D0520917603309177038091D1
:1047B0008C0190918D01281739070CF46DC0809100
:1047C0009E0583FF14C00E94292785E09DE00E947A
:1047D000592A6091580470915904072E000C880BD7
:1047E000990B0E94012789EF9CE00E94592A0E94A0
:1047F000292784EE9CE00E94592A10927703109298
:1048000076030C94E9162091A10530919D053B7B20
:1048100030939D0527602093A105609192057091CA
:1048200093059B01277033274091A20575FD24C095
:10483000821B930B21E030E001C0220F8A95EAF73A
:10484000242B2093A20581E090E090938B0180932C
:104850008A011092710310927A0310927903809169
:10486000A3058E7F8093A305089581E090E0909347
:104870008B0180938A010895821B930B21E030E025
:10488000B90102C0660F771F8A95E2F7CB018095C8
:1048900084238093A205D7CF08950F931F93CF93BE
:1048A000DF93CDB7DEB727970FB6F894DEBF0FBE04
:1048B000CDBF1A821982FE01339685E0DF011D9279
:1048C0008A95E9F78091880190918901823091055C
:1048D00069F11CF40197E1F0EDC08330910509F412
:1048E00046C0059709F0E6C080919F058B7F21E0C7
:1048F00030E0309389012093880110927103886021
:1049000080939F058091A3058D7F8093A305D8C0D8
:10491000809171038111D4C082E090E0909389016D
:104920008093880181E080937103CAC00E94292787
:104930008BEC9CE00E94592A0E94B42683EC9CE0F8
:104940000E94F22C8AEE93E10E94F22C8BEB9CE009
:104950000E94592A83EB9CE00E94592A8AE090E049
:1049600090934B0680934A0683E090E0A5C0809127
:104970004A0690914B06892B61F485E090E0909374
:104980008901809388010E9429278EE99CE00E947A
:10499000592A80919D0580FF93C080917903909161
:1049A0007A038230910509F066C010927A03109262
:1049B00079030E94292780E99CE00E94592A8DE50D
:1049C00092E00E944D2A20E0ADE5B2E0FD010190A9
:1049D0000020E9F73197ED55F240822F90E08E17D5
:1049E0009F0770F441E050E04C0F5D1F480F591FC6
:1049F000835A9D4FFC018081FA0180832F5FE6CFAF
:104A00002CE24DE260E070E0CE0101960E94C326E8
:104A10008DE592E00E941A318C0181E89CE00E94B1
:104A2000592AC80199270E940B278AEE93E10E9418
:104A3000592A80919F05093740F4846080939F052F
:104A4000109277031092760303C08B7F80939F05AB
:104A500081E090E090938901809388011092710326
:104A600080919F05886080939F058091A3058D7F2D
:104A70008093A30519C0039779F40E9429278EE437
:104A800097E00E94592A8DE592E00E944D2A8AEE15
:104A900093E10E94592A02C00E94952085E090E08F
:104AA000909389018093880180919D058E7F8093EA
:104AB0009D0506C081E090E0909389018093880174
:104AC00027960FB6F894DEBF0FBECDBFDF91CF9112
:104AD0001F910F91089580919D0586FD03C00E944E
:104AE0000D2304C08091A30580FDF9CF809171034F
:104AF000823078F480919D0582FF0BC080917A0509
:104B000090917B05892B29F08091A30581FD0E945E
:104B10004D2480919F0583FFA7C082FD56C083E08E
:104B200090E09093950180939401809192019091EF
:104B30009301019690939301809392010E942927FB
:104B400085E791E10E94592A809192019091930109
:104B50000E940B278AEE93E10E94592A80919201CC
:104B600090919301039708F46AC0109293011092F8
:104B700092018091A10581608093A1052091920509
:104B8000309193056091A205C9018770992735FD81
:104B90005CC046E050E0481B590B21E030E001C00A
:104BA000220F4A95EAF7262B2093A2050E94292777
:104BB00085E491E10E94592A8AE090E090938D016A
:104BC00080938C010E94E9163AC08091A1058E7FE6
:104BD0008093A1052091920530919305C9018770BA
:104BE00099276091A20546E050E0481B590B35FF1C
:104BF0000AC021E030E001C0220F4A95EAF7262BD7
:104C00002093A2050AC081E090E001C0880F4A9578
:104C1000EAF7809586238093A20510929301109263
:104C2000920180917A0590917B05909395018093F4
:104C3000940184E893E090938D0180938C0180919E
:104C40009F05837F80939F05089546E050E0481BB1
:104C5000590B81E090E001C0880F4A95EAF78095F2
:104C600086238093A205A2CF0895CF93DF93CAEA4B
:104C7000D5E00E94CB2C8823D1F00E94BA2CE09181
:104C8000A605F091A7059F012F5F3F4F3093A70521
:104C90002093A60580838091A6059091A70589544D
:104CA000964039F7D093A705C093A605E2CFDF91D0
:104CB000CF9108954AEA55E069E873E0E091A805CC
:104CC000F091A9058091A6059091A7058E179F07E1
:104CD00009F449C09F012F5F3F4F3093A9052093EE
:104CE000A80580812954364021F45093A9054093AA
:104CF000A8058D3011F08A30C1F4A9E8B3E0FD01B8
:104D000001900020E9F73197E958F340329730F0ED
:104D100080919D05886080939D050895B0935C0601
:104D2000A0935B06109289030895E0915B06F091D1
:104D30005C069F012F5F3F4F30935C0620935B061C
:104D40008083E0915B06F0915C06108280915B06A7
:104D500090915C068852944009F0B0CF70935C0645
:104D600060935B06ABCF08950E94691280919D0508
:104D70008E7F80939D05E9E8F3E0F0935C06E09375
:104D80005B0610820895CF93DF93DC01FB0177FF70
:104D900002C0E0E0F0E0EA0FFB1FCF0131913413D5
:104DA00007C0442351F16F5FFC013196962F07C075
:104DB000332319F16F5FF1CF882321F09F5F819139
:104DC0008213FACFFD01E60FF11D80E0692F70E03C
:104DD000282F30E0AF014A1B5B0B461757073CF406
:104DE0004191E901C35ADD4F48838F5FF1CFF9014B
:104DF000E35AFD4F1082892F01C080E0DF91CF91EF
:104E000008952AE030E04BE753E00E94912D8BE7B4
:104E100093E00C944D2A4AE050E06BE773E00E9467
:104E20005C2D8BE793E00C944D2A2AE030E04BE7B1
:104E300053E00E94912D8BE793E00C94E62C4AE01E
:104E400050E06BE773E00E94A02E8BE793E00C9498
:104E5000E62C83EA91E10E94592A809158029091B0
:104E6000590248E66BE773E00E94EB2D8BE793E075
:104E70000E944D2A80EA91E10C94592A89E190E040
:104E80000E945D2C0E941C2A0E94342AE9E8F3E06B
:104E9000F0935C06E0935B0610820E94B4268CECD3
:104EA00093E10E94592A0E9429278DEB93E10E94E9
:104EB000592A88EB93E10E94592A8AEE93E10E94D5
:104EC000592A0E94292784EB93E10E94592A8AEEED
:104ED00093E10E94592A0E94292780EA93E10E94C7
:104EE000592A86E191E00E940B2788E592E00E9412
:104EF000592A8AEE93E10C94592ACF93C0919D05CB
:104F0000C3FFC3C08C2F816080939D0510927A03EC
:104F1000109279036DEE71E089E893E00E945E31B2
:104F2000892B19F081E090E029C060EF71E089E8F9
:104F300093E00E945E31892BB9F082E090E090937B
:104F40007A03809379032DE040E264E070E089E821
:104F500093E00E94C32689E893E090935C068093D7
:104F60005B06109289038CC066EF71E089E893E0DC
:104F70000E945E31892B39F083E090E090937A03B0
:104F800080937903E8CF61E072E089E893E00E94C2
:104F90005E310097C9F089589340909388038093BD
:104FA00087030E94292782E393E10E94592A809176
:104FB0008703909188030E940B278AEE93E10E9459
:104FC000592A84E090E006C080917103843039F45E
:104FD00085E090E090937A038093790351C06AE072
:104FE00072E089E893E00E945E31892B19F086E037
:104FF00090E0F0CF8091A10582FF37C061E172E0BF
:1050000089E893E00E945E31892BD1F10E94292723
:105010008EE093E10E94592A89E893E00E944D2A8C
:105020008AEE93E10E94592A88EF92E10E94F22CC5
:1050300089E893E090935C0680935B061092890365
:1050400080919D058E7F80939D0510927A0310922A
:10505000790380919F05806180939F0586E990E0A8
:1050600090934B0680934A060BC089E893E0909397
:105070005C0680935B0610928903CE7FC0939D05EA
:1050800080919D05877F80939D05CF9108950E9413
:1050900029278DED92E10E94592A8CEB92E10E9422
:1050A000592A8BEA92E10E94592A8AE992E10E94E8
:1050B000592A88E892E10E94592A86E792E10E94E3
:1050C000592A85E692E10E94F22C84E592E10E9441
:1050D000F22C82E492E10E94F22C80E392E10E94A1
:1050E000F22C0C94B426CF93DF9380919D0583FF1F
:1050F000D8C0816080939D0589E893E00E94E62CEA
:105100008AEE93E10E94F22C65E172E089E893E077
:105110000E945E31892BC1F086E990E090934B06A6
:1051200080934A0689E893E090935C0680935B063F
:10513000109289030E9429278AE192E10E94592A4C
:1051400080919C05826427C069E172E089E893E060
:105150000E945E31892B21F186E990E090934B0605
:1051600080934A0689E893E090935C0680935B06FF
:10517000109289030E9429278DEF91E10E94592AFC
:10518000109250068BE08093510686E080934F0684
:1051900080919C058C6480939C05109271037CC067
:1051A0006DE172E089E893E00E945E31892BE1F0C5
:1051B00086E990E090934B0680934A0689E893E055
:1051C00090935C0680935B06109289030E942927C6
:1051D00080EE91E10E94592A8CE08093500685E18F
:1051E0008093510685E0D2CF61E272E089E893E0D6
:1051F0000E945E31892BD9F086E990E090934B06AE
:1052000080934A0689E893E090935C0680935B065E
:105210001092890384EC91E10E94592A8091A4059F
:1052200080628093A40580919C058064B4CFC9E816
:10523000D3E0FE0101900020E9F73197BF016958E2
:10524000734042E752E0CE010E94032D80919F05FA
:10525000806280939F050E94292783EB91E10E9441
:10526000592ACE010E944D2A8AEE93E10E94592AC2
:105270000E94292785EA91E10E94592A82E792E05B
:105280000E944D2A8AEE93E10E94592AD0935C062F
:10529000C0935B061092890380919D05877F809360
:1052A0009D05DF91CF9108950E9435260E945A26D0
:1052B00080919F0584FF24C080914A0690914B06FF
:1052C000892BB1F40E9429278BE793E10E94592A88
:1052D0008EE493E10E94F22C80919F058F7E809353
:1052E0009F0580919D058F7B80939D050E94B4262C
:1052F0000E94732880919F0585FF0EC00C94F11BBE
:105300000E947D278091790390917A030497B1F3ED
:1053100080917103843091F308951F920F920FB61C
:105320000F9211248F939F93EF93FF9380913204F8
:10533000813019F5809131048150E9F480912E0477
:1053400090912F0480FF02C0449A01C0449880913C
:105350002E0490912F049695879590932F04809317
:105360002E0480913004815080933004811102C05A
:105370001092320483E080933104809134048111CF
:1053800052C080912D048823E9F080912C04815033
:1053900080932C04811147C010922D041092330485
:1053A000E0913504F0E080912B04EA5CFB4F8083B0
:1053B000809135048F5F809335048032A0F1109284
:1053C000350431C080913304811110C035992BC050
:1053D00081E08093330410922B0494E090932C048A
:1053E00098E090932A04809329041DC080912C0496
:1053F0008150B9F480912904359B05C090912B040C
:10540000982B90932B04880F8093290480912A0471
:10541000815080932A04811103C081E080932D0480
:1054200083E080932C04FF91EF919F918F910F90D7
:105430000FBE0F901F9018951092320410923304F3
:1054400010923404449A3C9A3D989FB7F89480E1B6
:1054500087BD82E084BD85BDEEE6F0E0808182609C
:10546000808316BC9FBF08951092340408959091D4
:1054700032049130E1F393E0909331049AE09093F9
:10548000300490E0880F991F926090932F048093CE
:105490002E0481E0809332040895CF93DF93EC01D2
:1054A0008991882319F00E94372AFACFDF91CF9192
:1054B0000895CF93DF93FC018491EF012196882317
:1054C00021F00E94372AFE01F7CFDF91CF91089596
:1054D0008091A10581FF09C021E030E03093970160
:1054E000209396018D7F8093A105809196019091E4
:1054F000970183309105D9F054F48130910569F01A
:10550000029759F54198409A84E090E028C0843091
:10551000910591F00597C1F020C08091A10582FF0F
:1055200003C082E090E01BC083E090E018C0409888
:10553000419A85E090E013C08091A10583FF02C0ED
:10554000419A09C0419807C08091A10583FF02C01C
:10555000409A01C04098A895089581E090E090930A
:105560009701809396010895DF92EF92FF920F9337
:105570001F93CF93DF9380919E0585FF96C18F7D0A
:1055800080939E0580915C0490915D0401969093B8
:105590005D0480935C04CD973CF180915A04909116
:1055A0005B04019690935B0480935A0410925D040F
:1055B00010925C0480915602909157020097A1F0DE
:1055C00001979093570280935602892B69F480913A
:1055D00080059091810590935702809356028091A7
:1055E000A30584608093A30580919001909191011F
:1055F000009791F0019729F0909391018093900189
:105600000BC085E190E0909391018093900180918F
:10561000A30581608093A305809176039091770321
:105620000196909377038093760380918E019091F9
:105630008F010097E1F0019790938F0180938E0185
:10564000892B69F4809194019091950190938F0139
:1056500080938E018091A30582608093A30501E66B
:1056600016E0C1E0D0E0EE24E394F12C1BC0809161
:1056700094019091950190938F0180938E01EFCFCB
:105680000197A109B10980839183A283B383892BF8
:105690008A2B8B2B89F00C5F1F4F2196C930D105C7
:1056A00009F44EC0F80180819181A281B3810097F5
:1056B000A105B10581F3E4CF0E9429278AE994E18D
:1056C0000E94592ACE010E940B278BE894E10E9488
:1056D000592A8C2F90E0FC013297E730F10520F435
:1056E000E15CFF4F0C94143185E00DC083E00BC0EA
:1056F00082E009C081E007C080E005C086E003C009
:1057000087E001C084E09091A205292F30E0082EA7
:1057100002C0359527950A94E2F720FF08C097014B
:1057200001C0220F8A95EAF72095922306C09701BF
:1057300001C0220F8A95EAF7922B9093A205ABCF76
:105740008091A30583FF5CC080914A0290914B0237
:10575000A0914C02B0914D020197A109B10980932B
:105760004A0290934B02A0934C02B0934D02892BB6
:105770008A2B8B2B09F044C080914E0290914F02EE
:10578000A0915002B091510280934A0290934B0233
:10579000A0934C02B0934D020E9429278CE694E11D
:1057A0000E94592A60914A0270914B0280914C02EA
:1057B00090914D020E94012785E694E10E94592AAA
:1057C0009091A30580919C0594FF0AC094E5909365
:1057D0005A0292E490935B0210925C0280650EC0C4
:1057E00020916D0530916E05309358062093570631
:1057F00090919D059F7E90939D05806480939C056C
:1058000080919E0583FF51C080915604909157046A
:10581000181619060CF501979093570480935604B7
:10582000892BD1F40E94292782E494E10E94592A0D
:105830008AEE93E10E94592A0E9429278AE294E184
:105840000E94592A80918C0590918D05909359045E
:10585000809358040E94E11F80915804909159044C
:105860001816190614F5019790935904809358045B
:10587000892BD9F40E94292786E094E10E94592AB5
:105880000E9429278FEE93E10E94592A80918E056C
:1058900090918F0590935704809356040E94762030
:1058A00080919E05806180939E05DF91CF911F912D
:1058B0000F91FF90EF90DF9008959093C500809333
:1058C000C40088E98093C10086E08093C2001092F2
:1058D000E0041092E10410925E0410925F040895B7
:1058E0001F920F920FB60F9211248F939F93EF93F5
:1058F000FF938091C600E091E104EF5FEF77E093C2
:10590000E1049091E004F0E0EE51FB4F8083FF91C1
:10591000EF919F918F910F900FBE0F901F90189550
:105920001F920F920FB60F9211248F939F93EF93B4
:10593000FF9390915F0480915E04981769F0E09165
:105940005E04EF5FEF77E0935E04F0E0E05AFB4F18
:1059500080818093C60005C08091C1008F7D8093B7
:10596000C100FF91EF919F918F910F900FBE0F900B
:105970001F9018959091E1048091E0049817D1F35D
:10598000E091E004EF5FEF77E093E004F0E0EE51A8
:10599000FB4F808108958091E1049091E004891B80
:1059A000089590915F049F5F9F7720915E04921706
:1059B000E1F3E92FF0E0E05AFB4F808390935F041E
:1059C0008091C10080628093C1000895CF93DF93DE
:1059D000EC018991882319F00E94D12CFACFDF9134
:1059E000CF910895CF93DF93EC01CE01FE01249176
:1059F000222331F02196FC0184910E94D12CF5CF15
:105A0000DF91CF910895FB01EE0FFF1FDA01AE0F7A
:105A1000BF1F1C923297E40FF51FDC01A60FB71FC2
:105A200042505109E417F507C1F09E9190832C91E3
:105A30002F70218392959F7090832A3010F42063F9
:105A400002C02064295021839A3010F4906302C070
:105A50009064995090833297E5CF08950F931F93E8
:105A6000CF93DF93D62F90E00E9444318C01992789
:105A70000E943831892BD1F0C02F0A3310F0C9EFC2
:105A8000C00F8D2F90E00E9444318C0199270E9415
:105A90003831892B59F0802F0A3310F089EF800FAD
:105AA00090E1C99F800D1124805301C080E0DF91F7
:105AB000CF911F910F9108950F931F93CF93DF9371
:105AC0009C01EB018A01009719F0E1E0F0E004C0CD
:105AD00080E38883198220C0B8010E94BF3061151D
